:100000000C9434000C9446000C9446000C9446006A
:100010000C9446000C9446000C9446000C94460048
:100020000C9446000C9446000C9446000C94460038
:100030000C9446000C9446000C9446000C94460028
:100040000C9446000C9446000C9470000C944600EE
:100050000C9446000C9446000C9446000C94460008
:100060000C9446000C94460011241FBECFEFD8E03C
:10007000DEBFCDBF21E0A0E0B1E001C01D92A531FF
:10008000B207E1F70E94F3000C9438010C940000D1
:1000900087E690E09093C5008093C400E1ECF0E027
:1000A0008081886180838EE08093C20008950E94E1
:1000B00048008EE284B984B1816084B982E08AB953
:1000C00085B1846085B985B1826085B981E58CBDD3
:1000D00008959091C00095FFFCCF8093C6000895CD
:1000E0001F920F920FB60F9211242F933F934F93AD
:1000F0005F936F937F938F939F93AF93BF93EF9390
:10010000FF93A0910001E1E0EA0FE0930001B0E06D
:100110008091C600A55FBE4F8C93F0E0E65FFE4F76
:10012000808190E00E946900FF91EF91BF91AF91B3
:100130009F918F917F916F915F914F913F912F91FF
:100140000F900FBE0F901F9018958EBD0DB407FE37
:10015000FDCF8EB50895CF93DF93EC0185B18B7FF2
:1001600085B980E490E00E94A50080E090E00E94C4
:10017000A500CE010E94A50085B1846085B9DF91FC
:10018000CF910895CF93DF93EC0185B18B7F85B933
:1001900080E490E00E94A5008AE090E00E94A50023
:1001A000CE010E94A50085B1846085B9DF91CF9111
:1001B0000895CF9385B18D7F85B980E090E00E944E
:1001C000A500C82F80E090E00E94A50095B1926044
:1001D00095B9CF71869590E020E8C29F800D911D62
:1001E0001124CF9108950E9457008AE0EBE0F1E0DE
:1001F000DF01282F1D922A95E9F7E1E0F1E0DF0108
:100200001D928A95E9F7789480E090E00E94AB0017
:100210008FE090E00E94C200BFEF23ED80E3B15079
:1002200020408040E1F700C0000080EF90E00E9495
:10023000C2009FEFA3EDB0E39150A040B040E1F7C2
:1002400000C000008AEA90E00E94C2000E94D9002B
:10025000EC010E94C200CE010E9469002FEF81EEE6
:1002600094E0215080409040E1F700C00000EECFC4
:04027000F894FFCF30
:00000001FF
